:100000000C94C2000C94A3080C947C080C94EA0095
:100010000C94EA000C94EA000C94EA000C94EA00B8
:100020000C94EA000C94EA000C94EA000C94EA00A8
:100030000C94EA000C94EA000C94EA000C94EA0098
:100040000C9432080C94EA000C9400080C94DA0723
:100050000C94EA000C94EA000C94EA000C94EA0078
:100060000C94EA000C94EA0008000000BE922449B7
:10007000123EABAAAA2ABECDCCCC4C3E00000080DA
:10008000BEABAAAAAA3E00000000BF000000803F4D
:100090000000000000084178D3BB4387D1133D190D
:1000A0000E3CC3BD4282AD2B3E68EC8276BED98F3A
:1000B000E1A93E4C80EFFFBE01C4FF7F3F0000007E
:1000C000000007634236B79BD8A71A39685618AEA6
:1000D000BAAB558C1D3CB7CC5763BD6DEDFD753E7D
:1000E000F6177231BF000000803FCDCCCC3D0AD75F
:1000F000233C17B7D13877CC2B329595E6241FB126
:100100004F0A0000803FCDCCCC3D6F12833A95BFA3
:10011000D6337D1D9026B3CE010C00002041000097
:10012000C84200401C4620BCBE4CCA1B0E5AAEC57D
:100130009D7400000000240027002A000000000039
:10014000250028002B000404040404040404020213
:100150000202020203030303030301020408102046
:100160004080010204081020010204081020000051
:100170000008000201000003040700000000000066
:100180000000650B11241FBECFEFD8E0DEBFCDBF4E
:1001900011E0A0E0B1E0E2E4FFE102C005900D92C1
:1001A000A23EB107D9F722E0A2EEB1E001C01D9254
:1001B000A239B207E1F710E0C2ECD0E004C0219709
:1001C000FE010E94900FC13CD107C9F70E94CA08E6
:1001D0000C949F0F0C9400008091F1019091F2011A
:1001E00001969093F2018093F1010895AF92BF922E
:1001F000CF92DF92EF92FF920F931F93CF93DF93F3
:100200006C017B018B01040F151FEB015E01AE1821
:10021000BF08C017D10759F06991D601ED91FC9143
:100220000190F081E02DC6010995892B79F7C50170
:10023000DF91CF911F910F91FF90EF90DF90CF90C2
:10024000BF90AF900895FC01538D448D252F30E071
:10025000842F90E0821B930B541710F0CF960895D3
:1002600001970895FC01918D828D981761F0A28D00
:10027000AE0FBF2FB11D5D968C91928D9F5F9F73C6
:10028000928F90E008958FEF9FEF0895FC01918D7C
:10029000828D981731F0828DE80FF11D858D90E0E9
:1002A00008958FEF9FEF0895FC01918D228D892F86
:1002B00090E0805C9F4F821B91098F73992708956E
:1002C00085EF91E00E94540121E0892B09F420E0A0
:1002D000822F089580E090E0892B29F00E94600130
:1002E00081110C9400000895FC01A48DA80FB92F72
:1002F000B11DA35ABF4F2C91848D90E001968F734E
:100300009927848FA689B7892C93A089B1898C916C
:10031000837080648C93938D848D981306C00288BB
:10032000F389E02D80818F7D80830895EF92FF9285
:100330000F931F93CF93DF93EC0181E0888F9B8D08
:100340008C8D98131AC0E889F989808185FF15C0C2
:100350009FB7F894EE89FF896083E889F9898081E5
:100360008370806480839FBF81E090E0DF91CF91B4
:100370001F910F91FF90EF900895F62E0B8D10E0D6
:100380000F5F1F4F0F731127E02E8C8D8E110CC045
:100390000FB607FCFACFE889F989808185FFF5CF90
:1003A000CE010E947401F1CFEB8DEC0FFD2FF11DFA
:1003B000E35AFF4FF0829FB7F8940B8FEA89FB89CD
:1003C00080818062CFCFCF93DF93EC01888D88232B
:1003D000B9F0AA89BB89E889F9898C9185FD03C0A8
:1003E000808186FD0DC00FB607FCF7CF8C9185FF8D
:1003F000F2CF808185FFEDCFCE010E947401E9CF5D
:10040000DF91CF9108958E3008F08E508770806410
:1004100080937C0080917A00806480937A00809140
:100420007A0086FDFCCF8091780090917900089544
:100430003FB7F8948091E3019091E401A091E50128
:10044000B091E60126B5A89B05C02F3F19F0019693
:10045000A11DB11D3FBFBA2FA92F982F8827BC011E
:10046000CD01620F711D811D911D42E0660F771F46
:10047000881F991F4A95D1F708950895CF93DF9368
:10048000EC0188819981DC01ED91FC910190F08172
:10049000E02D09952A813B81820F931F9B838A83DC
:1004A000DF91CF910895CF93DF93EC0188819981FB
:1004B000DC01ED91FC910280F381E02D09952A8108
:1004C0003B81820F931F9B838A83DF91CF91089595
:1004D0008F929F92AF92BF92CF92DF92EF92FF9254
:1004E0000F931F93CF93DF93CDB7DEB766970FB609
:1004F000F894DEBF0FBECDBF6C018E01095E1F4FA9
:1005000078018AE0882E912CA12CB12CCB01BA0164
:10051000A50194010E946E0F942F852F605DF80154
:1005200062938F01A901692F782F4115510561054B
:10053000710561F7A7014E1B5F0BBF01C6010E9449
:10054000530266960FB6F894DEBF0FBECDBFDF91A3
:10055000CF911F910F91FF90EF90DF90CF90BF90C0
:10056000AF909F908F900895EF92FF920F931F93FB
:10057000CF93DF93EC017B0162E20E943E02870190
:10058000F80161918F01662391F0E6E1F1E0F280DC
:10059000FF2049F0329681816813F9CF6CE5CE01D6
:1005A0000E943E026F2DCE010E943E02E9CF62E220
:1005B000CE01DF91CF911F910F91FF90EF900C949E
:1005C0003E02FC012581222339F0F8E02F02900140
:1005D0001124820F931F089590E080E00895FC019C
:1005E00001900020E9F73197AF01481B590BBC017E
:1005F00085EF91E00C94F6008F929F92AF92BF929C
:100600000F931F93CF93DF93CDB7DEB7A1970FB6AC
:10061000F894DEBF0FBECDBF19A2423008F44AE005
:100620008E010F5D1F4F842E912CB12CA12CA501A2
:1006300094010E946E0FE62FB901CA01EA30F4F46A
:10064000E05DD801EE938D01232B242B252B79F728
:1006500090E080E0109719F0CD010E94EF02A19682
:100660000FB6F894DEBF0FBECDBFDF91CF911F91C3
:100670000F91BF90AF909F908F900895E95CE1CF6C
:10068000CF93DF930E94EF02EC0187E291E00E949A
:10069000EF028C0F9D1FDF91CF910895FB01019018
:1006A0000020E9F73197AF01461B570B0C9453021A
:1006B0002F923F924F925F926F927F928F929F9272
:1006C000AF92BF92CF92DF92EF92FF920F931F9360
:1006D000CF93DF93CDB7DEB76C970FB6F894DEBF3C
:1006E0000FBECDBF8C011B01DC0114968C911497B9
:1006F0008F77863009F474C278F48230B0F0843099
:1007000008F04CC212964D915C9113976D917C91BB
:10071000C1010E94530226C28C3069F160F4883016
:1007200009F459C28A3009F43FC26AE271E0C1019A
:100730000E944E03E5C1803209F4ECC18034A9F770
:100740006BE5C1010E943E02F80100811181011593
:10075000110509F4DAC1B101C8010E945803C801AA
:100760000E94E1028C01892B09F4CFC16CE2C10126
:100770000E943E02ECCFF801C080D180E280F3807D
:10078000A7019601C701B6010E94FF0B8111CDCFD1
:1007900020E030E0A901C701B6010E94FF0B8823C9
:1007A00079F0A7019601C701B6010E94930B9B0146
:1007B000AC01C701B6010E94FF0B882309F4B5CF35
:1007C00020E030E0A901C701B6010E94FF0B87FFBE
:1007D00008C06DE2C1010E943E02F7FAF094F7F8FA
:1007E000F09420E836E948E15BE4C701B6010E94D5
:1007F0005E0D87FD81C074E1A72EB12C00E210E0F0
:10080000188E1F8AF501E65EFE4F259135914591C0
:100810005491C701B6010E945E0D87FD13C0F5011A
:10082000E651FF4F2591359145915491C701B6018D
:100830000E94B30D6B017C012F89388D200F311F71
:10084000388F2F8B1595079534E0A31AB1088CEFDC
:10085000A8168FEFB806B1F655245A9420E030E080
:10086000A901C701B6010E945E0D18160CF04BC01D
:100870002CEA35EC47E257E3C701B6010E94FF0BB3
:1008800018160CF440C0A52DB4E0AB02C001112431
:10089000912C812CFC01EE5FFE4F3F019C01265EF6
:1008A0003E4F59013FEF531671F1F301E80DF91D69
:1008B0006591759185919491A70196010E945E0DB5
:1008C00018169CF4F501E80DF91D25913591459117
:1008D0005491C701B6010E94B30D6B017C018F8951
:1008E000988D801B910B988F8F8B159507955A9437
:1008F00094E0891A9108D6CF00E210E055E0552E19
:10090000188E1F8AABCFC701B6010E947D0C4B0128
:100910005C012B013C0106E080E492E4AFE0B0E032
:10092000898F9A8FAB8FBC8F102F01509AE0491698
:10093000510461047104C8F0698D7A8D8B8D9C8D92
:100940002AE030E040E050E00E946E0F298F3A8F9D
:100950004B8F5C8FC301B2012AE030E040E050E0F1
:100960000E946E0F29013A01DFCFC501B4010E9438
:10097000AC0C9B01AC01C701B6010E94920B6B014C
:100980007C01698D7A8D8B8D9C8D0E94AC0C9B01B6
:10099000AC01C701B6010E94B30D2B013C010E94BE
:1009A0007D0C6B017C010E94AC0C9B01AC01C3016E
:1009B000B2010E94920B9B01AC010E94930B0E941A
:1009C0007D0CC60ED71EE81EF91E898D9A8DAB8D43
:1009D000BC8DC816D906EA06FB06D8F09FEF891A27
:1009E000990AA90AB90AAF89B88DAB2B39F1BAE0D7
:1009F0008B169104A104B10408F1EF89F88D3196AA
:100A0000F88FEF8BC12CD12C7601812C912C5401C5
:100A100083942AE0422E512C612C712CC701B6011F
:100A2000A30192010E946E0F672B682B692B51F472
:100A3000111644F469017A011150F0CFC12CD12C68
:100A40007601E7CFB501A401C1010E94680211231C
:100A500071F14E01F1E18F0E911C012F54019AE0CA
:100A6000492E512C612C712C015068F0C701B60140
:100A7000A30192010E946E0F605DD4016E934D013F
:100A800069017A01F1CF812F90E0BC0160957095EA
:100A9000F501E81BF90B31978EE280834427552737
:100AA000461B570B6A0D7B1DC1010E945302EF8943
:100AB000F88DEF2B29F165E6C1010E943E020F89F6
:100AC000188D17FF07C06DE2C1010E943E0211950B
:100AD00001951109FE0177969F018AE0E82EF12C1D
:100AE000C801B7010E945A0F805D82938B01672B6A
:100AF000B9F7A9014E1B5F0BBF01C1010E94530250
:100B0000D10112968D919C9130C06DE5C1010E947A
:100B10003E02F6CF6BE7C1010E943E02F801008160
:100B2000118101151105D1F0D80116966D917C91B6
:100B3000C1010E94B4026AE3C1010E943E02B101F8
:100B4000C8010E945803C8010E94E1028C01892B50
:100B500029F06CE2C1010E943E02E3CF6DE7C101C2
:100B60000E943E02F101828193816C960FB6F89447
:100B7000DEBF0FBECDBFDF91CF911F910F91FF90D0
:100B8000EF90DF90CF90BF90AF909F908F907F902D
:100B90006F905F904F903F902F9008956D917C9152
:100BA000C1010E94B402DECFCD90DD90ED90FC90AB
:100BB000B701A601F7FE0BC06DE2C1010E943E0223
:100BC00044275527BA014C195D096E097F09C101F7
:100BD0000E946802C7CF4D915D916D917C91F7CFD6
:100BE0008C916FE271E0811102C064E371E0C10198
:100BF0000E944E03B7CF4F925F926F927F928F9277
:100C00009F92AF92BF92CF92DF92EF92FF920F939B
:100C10001F93CF936B017C01742EAC019B010E944A
:100C2000700E882399F08AE391E0CF911F910F9184
:100C3000FF90EF90DF90CF90BF90AF909F908F90FC
:100C40007F906F905F904F900C94EF024601570198
:100C5000E894B7F82FEF3FEF4FE75FE7C501B40126
:100C60000E94700E81110DC02FEF3FEF4FE75FE73D
:100C7000C501B4010E94FF0B18161CF48EE391E02D
:100C8000D4CF2FEF3FEF4FE75FE4C701B6010E94DB
:100C90005E0D18161CF482E491E0C7CF2FEF3FEFF2
:100CA0004FE75FECC701B6010E94FF0B87FDF3CF52
:100CB00020E030E0A901C701B6010E94FF0B10E05F
:100CC00000E087FF0AC06DE285EF91E00E94960187
:100CD0008C01F7FAF094F7F8F094C0E060E070E06F
:100CE00080E09FE37C1641F020E030E040E251E4F8
:100CF0000E94040CCF5FF6CFA70196010E94930BD0
:100D00002B013C010E947D0C4B015C014AE00E94DA
:100D1000FC027C01E00EF11ECC23C1F1C501B4013F
:100D20000E94AC0C9B01AC01C301B2010E94920B6A
:100D30004B015C016EE285EF91E00E949601E80EA6
:100D4000F91EC15018F120E030E040E251E4C50145
:100D5000B4010E94B30D2B013C010E947D0C4B019C
:100D6000B12CA12C4AE0C501B4010E94FC02E80E9E
:100D7000F91EC501B4010E94AC0C9B01AC01C3017A
:100D8000B2010E94920B4B015C01DBCFC701CF91F6
:100D90001F910F91FF90EF90DF90CF90BF90AF9099
:100DA0009F908F907F906F905F904F900895CF921B
:100DB000DF92EF92FF920F931F93CF93DF93FC018B
:100DC0008481982F9F7739F48078806284831182A0
:100DD000108213821282848185FD0CC0D0E0C0E0B5
:100DE000CE01DF91CF911F910F91FF90EF90DF9097
:100DF000CF9008956115710589F37A016B018F0118
:100E0000C081D1812097C1F16E817F816C157D05F4
:100E100039F36115710529F0C6010E94960F892BDF
:100E2000F9F2CE010E94E102EC01ECCFE901289732
:100E3000F701D583C483209789F2D8011296ED91EA
:100E4000FC911397309791F0CE018E1B9F0B23E0FE
:100E5000959587952A95E1F785831396DC93CE9334
:100E600012971D821C82DF82CE82BACFF801D18315
:100E7000C083D383C283F5CFD70114962D913C91C3
:100E8000159712968D919C9108962817390770F640
:100E900081E0D70118968C93A3CF0E940302BC0176
:100EA000990F880B990B0E94AE0C9B01AC0160E07E
:100EB00070EC8FE794E40E94040C20E030E040E8FE
:100EC0005FE30E94920B20E030E44CE156E40E9484
:100ED000B30D9B01AC0160E079ED88EF97E40E94CF
:100EE000040C2EE336E245E95FE30C94200E8F926A
:100EF0009F92AF92BF92CF92DF92EF92FF920E94A9
:100F00000302BC01990F880B990B0E94AE0C9B0148
:100F1000AC0160E070EC8FE794E40E94040C20E0E8
:100F200030E040E85FE30E94920B20E030E44CE1C7
:100F300056E40E94B30D0E946B0D6B017C012CE600
:100F40003FEC48E554E30E94B30DA70196010E94CF
:100F5000B30DA70196010E94B30D4B015C0126ED74
:100F600034E649E759E3C701B6010E94B30D2BEC03
:100F700038E444E85AE30E94930B9B01AC01C5019D
:100F8000B4010E94930B9B01AC0160E070E080E82B
:100F90009FE30E94040C23E333E948E853E40E94F2
:100FA000920BFF90EF90DF90CF90BF90AF909F900B
:100FB0008F9008951F920F920FB60F9211242F93C6
:100FC0003F934F935F936F937F938F939F93AF93D1
:100FD000BF93EF93FF9385EF91E00E947401FF911F
:100FE000EF91BF91AF919F918F917F916F915F91A1
:100FF0004F913F912F910F900FBE0F901F9018951A
:101000001F920F920FB60F9211242F938F939F93DD
:10101000EF93FF93E0910502F09106028081E09149
:101020000B02F0910C0282FD1BC0908180910E0298
:101030008F5F8F7320910F02821741F0E0910E02B3
:10104000F0E0EB50FE4F958F80930E02FF91EF91F1
:101050009F918F912F910F900FBE0F901F90189519
:101060008081F4CF1F920F920FB60F9211242F930D
:101070003F938F939F93AF93BF938091E70190919C
:10108000E801A091E901B091EA013091E20123E089
:10109000230F2D3758F50196A11DB11D2093E201B4
:1010A0008093E7019093E801A093E901B093EA01EE
:1010B0008091E3019091E401A091E501B091E601F6
:1010C0000196A11DB11D8093E3019093E401A093CB
:1010D000E501B093E601BF91AF919F918F913F9150
:1010E0002F910F900FBE0F901F90189526E8230F99
:1010F0000296A11DB11DD2CF1F920F920FB60F9273
:1011000011242F933F934F935F936F937F938F930C
:101110009F93AF93BF93EF93FF93E0910201F09100
:1011200003010995FF91EF91BF91AF919F918F912D
:101130007F916F915F914F913F912F910F900FBED3
:101140000F901F9018951F920F920FB60F921124B7
:101150002F933F934F935F936F937F938F939F93BF
:10116000AF93BF93EF93FF93E0910001F0910101E2
:101170000995FF91EF91BF91AF919F918F917F91D1
:101180006F915F914F913F912F910F900FBE0F90F4
:101190001F901895CF93DF93CDB7DEB7C05ED1090E
:1011A0000FB6F894DEBF0FBECDBF789484B58260D1
:1011B00084BD84B5816084BD85B5826085BD85B5FB
:1011C000816085BD80916E00816080936E00109279
:1011D00081008091810082608093810080918100F4
:1011E0008160809381008091800081608093800085
:1011F0008091B10084608093B1008091B0008160E3
:101200008093B00080917A00846080937A0080910E
:101210007A00826080937A0080917A008160809366
:101220007A0080917A00806880937A001092C100E1
:101230004CE551E0FA01649188E491E0FC012491CD
:101240002223C9F030E0220F331FF901EE5CFE4F7C
:10125000A591B491F901E45CFE4F059114917FB71B
:10126000F8943C91262F209532233C93D8013C9151
:1012700023232C937FBFE0E7F1E02491FA0144910E
:10128000FC0194919923D9F0222359F0233009F4D9
:1012900005C208F0F8C1213009F406C2223009F471
:1012A00007C2E92FF0E0EE0FFF1FE45CFE4FA591AF
:1012B000B4918FB7F8949C91492B4C938FBFE091D8
:1012C0000502F091060282E08083E0910102F09134
:1012D00002021082E0910302F091040280E1808317
:1012E00010920D02E0910902F0910A0286E08083DB
:1012F000E0910702F0910802808180618083E09193
:101300000702F0910802808188608083E0910702E3
:10131000F0910802808180688083E0910702F0915B
:10132000080280818F7D80839CEE292E90E0392EEB
:101330006E01FFE0CF0ED11C8E0109521F4F60914C
:10134000F3017091F4016F5F7F4F7093F40160932C
:10135000F30190E080E04AE00E94FC0286E491E024
:101360000E94EF021092EB011092EC011092ED013D
:101370001092EE011092F2011092F10130920101EF
:101380002092000180916900836080936900E89A4F
:101390002FB7F8948091E7019091E801A091E901BD
:1013A000B091EA012FBF88579C4EAF4FBF4F2FB768
:1013B000F8944091E7015091E8016091E901709142
:1013C000EA012FBF481759076A077B0780F38DE5AD
:1013D00091E00E9440038CE691E00E94EF02609150
:1013E000F1017091F20190E080E04AE00E94FC027D
:1013F00081E891E00E94EF022091F1013091F20129
:101400004CE3429FC001439F900D112465E070E0C2
:101410000E945A0F7093F0016093EF0190E080E01A
:101420004AE00E94FC028AE891E00E944003609139
:10143000EF017091F00190E080E00E94AC0C26E397
:1014400038EE46E654E40E94B30D20E030E040E779
:1014500052E40E94040C20E030E04AE754E40E9489
:10146000040C26E636E646E650E40E94B30D60938F
:10147000EB017093EC018093ED019093EE0142E05B
:101480000E94FB058AE991E00E94400388E891E010
:101490000E9440038EE090E00E9477074B015C01C0
:1014A00083EA91E00E94EF0242E0C501B4010E948C
:1014B000FB0581EB91E00E94400388E891E00E94E7
:1014C00040038FE090E00E944D074B015C0184EBEC
:1014D00091E00E94EF0242E0C501B4010E94FB05C9
:1014E00087E291E00E94EF0288E891E00E944003C9
:1014F000DA82C982DC82CB821E830D8318870F8338
:1015000019868E8580788E878FE090E00E944D0747
:101510002B013C018EE090E00E9477074B015C01BB
:101520008091EB019091EC01A091ED01B091EE0161
:10153000C352DF4F88839983AA83BB83CD5DD0409C
:10154000AE014F5F5F4F63EC71E0CE010A960E94DF
:10155000D7067C010097A9F0DC0114968C911497B2
:1015600080788A6014968C93C301B2010E94760C35
:10157000072E000C880B990BF7016083718382831F
:101580009383AE014F5F5F4F6FEC71E0CE010A961F
:101590000E94D7067C010097A9F0DC0114968C917B
:1015A000149780788A6014968C93C501B4010E94C8
:1015B000760C072E000C880B990BF7016083718362
:1015C00082839383AE014F5F5F4F69ED71E0CE017F
:1015D0000A960E94D706FC01892B81F094819078AD
:1015E0009C609483C352DF4F88819981AA81BB811B
:1015F000CD5DD04080839183A283B383E5EFF1E09A
:10160000D8011196FC93EE9313961C921E9212979A
:10161000B801CE010A960E94580387E291E00E9429
:10162000EF020E9418022B013C0180ED882E87E01A
:10163000982EA12CB12C0E941802641975098609F4
:101640009709683E734081059105A8F3F1E08F1A70
:101650009108A108B10828EE420E23E0521E611C39
:10166000711C81149104A104B10429F780E090E079
:10167000892B09F464CE0E946001882309F45FCEAF
:101680000E9400005CCE2730B1F02830D1F0243029
:1016900009F007CE809180008F7D03C0809180008B
:1016A0008F7780938000FDCD84B58F7784BDF9CD91
:1016B00084B58F7DFBCF8091B0008F778093B00091
:1016C000F0CD8091B0008F7DF9CFE5EFF1E013828E
:1016D000128288EE93E0A0E0B0E084839583A68335
:1016E000B78388E091E09183808385EC90E09587D3
:1016F000848784EC90E09787868780EC90E0918BDC
:10170000808B81EC90E0938B828B82EC90E0958BC8
:10171000848B86EC90E0978B868B118E128E138EC5
:10172000148E08955058BB27AA270E94AA0B0C9428
:10173000240D0E94160D38F00E941D0D20F039F482
:101740009F3F19F426F40C94130D0EF4E095E7FB7B
:101750000C940D0DE92F0E94350D58F3BA1762074E
:1017600073078407950720F079F4A6F50C94570DBC
:101770000EF4E0950B2EBA2FA02D0B01B9019001AC
:101780000C01CA01A0011124FF27591B99F0593FF0
:1017900050F4503E68F11A16F040A22F232F342F38
:1017A0004427585FF3CF469537952795A795F04086
:1017B0005395C9F77EF41F16BA0B620B730B840B9B
:1017C000BAF09150A1F0FF0FBB1F661F771F881F53
:1017D000C2F70EC0BA0F621F731F841F48F48795AB
:1017E00077956795B795F7959E3F08F0B0CF93959D
:1017F000880F08F09927EE0F9795879508950E9416
:10180000E90C08F481E008950E94180C0C94240D52
:101810000E941D0D58F00E94160D40F029F45F3F04
:1018200029F00C940D0D51110C94580D0C94130DBE
:101830000E94350D68F39923B1F3552391F3951B5D
:10184000550BBB27AA2762177307840738F09F5FE1
:101850005F4F220F331F441FAA1FA9F335D00E2E4E
:101860003AF0E0E832D091505040E695001CCAF7BB
:101870002BD0FE2F29D0660F771F881FBB1F26177E
:1018800037074807AB07B0E809F0BB0B802DBF0155
:10189000FF2793585F4F3AF09E3F510578F00C9424
:1018A0000D0D0C94580D5F3FE4F3983ED4F38695EC
:1018B00077956795B795F7959F5FC9F7880F911D45
:1018C0009695879597F90895E1E0660F771F881F31
:1018D000BB1F621773078407BA0720F0621B730BE4
:1018E000840BBA0BEE1F88F7E09508950E947D0CDB
:1018F0006894B1110C94580D08950E943D0D88F024
:101900009F5798F0B92F9927B751B0F0E1F0660FC3
:10191000771F881F991F1AF0BA95C9F714C0B13004
:1019200091F00E94570DB1E008950C94570D672F68
:10193000782F8827B85F39F0B93FCCF38695779533
:101940006795B395D9F73EF490958095709561951C
:101950007F4F8F4F9F4F0895E89409C097FB3EF447
:1019600090958095709561957F4F8F4F9F4F9923EC
:10197000A9F0F92F96E9BB279395F695879577956A
:101980006795B795F111F8CFFAF4BB0F11F460FF2A
:101990001BC06F5F7F4F8F4F9F4F16C0882311F082
:1019A00096E911C0772321F09EE8872F762F05C096
:1019B000662371F096E8862F70E060E02AF09A9531
:1019C000660F771F881FDAF7880F9695879597F926
:1019D0000895990F0008550FAA0BE0E8FEEF1616C0
:1019E0001706E807F907C0F012161306E407F50713
:1019F00098F0621B730B840B950B39F40A2661F087
:101A0000232B242B252B21F408950A2609F4A14029
:101A1000A6958FEF811D811D089597F99F6780E836
:101A200070E060E008959FEF80EC089500240A9430
:101A30001616170618060906089500240A941216A9
:101A40001306140605060895092E0394000C11F4DC
:101A5000882352F0BB0F40F4BF2B11F460FF04C089
:101A60006F5F7F4F8F4F9F4F089557FD9058440FE2
:101A7000551F59F05F3F71F04795880F97FB991FED
:101A800061F09F3F79F087950895121613061406AA
:101A9000551FF2CF4695F1DF08C016161706180637
:101AA000991FF1CF86957105610508940895E89412
:101AB000BB2766277727CB0197F908950E94E90C89
:101AC00008F48FEF089516F00C94AF0E0C94130DDC
:101AD00068940C940D0D0E943D0DA8F39923C1F359
:101AE000AEF3DF93CF931F930F93FF92C92FDD27A0
:101AF00088232AF02197660F771F881FDAF720E0E6
:101B000030E040E85FEB9FE3883920F0803E38F01A
:101B100021968F770E94930BE8E6F0E004C00E94C4
:101B2000930BE5E9F0E00E94BD0E8B01BE01EC01D4
:101B3000FB2E6F5771097595771F880B990B0E94C3
:101B4000AE0C28E132E741E35FE30E94C60DAF2D02
:101B50009801AE01FF900F911F91CF91DF910E94EC
:101B6000AA0B0C94240D0E94C60D0C94240D0E9407
:101B7000160D38F00E941D0D20F0952311F00C94E5
:101B80000D0D0C94130D11240C94580D0E94350D5D
:101B900070F3959FC1F3950F50E0551F629FF001C0
:101BA000729FBB27F00DB11D639FAA27F00DB11DD9
:101BB000AA1F649F6627B00DA11D661F829F222762
:101BC000B00DA11D621F739FB00DA11D621F839FE9
:101BD000A00D611D221F749F3327A00D611D231FBF
:101BE000849F600D211D822F762F6A2F11249F570D
:101BF00050409AF0F1F088234AF0EE0FFF1FBB1F10
:101C0000661F771F881F91505040A9F79E3F5105CE
:101C100080F00C940D0D0C94580D5F3FE4F3983E4A
:101C2000D4F3869577956795B795F795E7959F5F78
:101C3000C1F7FE2B880F911D9695879597F908950A
:101C4000FA01EE0FFF1F309621053105A1F1611554
:101C5000710561F48038BFE39B0749F168949038BF
:101C6000810561F08038BFEF9B0741F099234AF569
:101C7000FF3FE1053105210519F1E8940894E79546
:101C8000D901AA2329F4AB2FBE2FF85FD0F310C0DF
:101C9000FF5F70F4A695E0F7F73950F019F0FF3ABE
:101CA00038F49F779F930DD00F9007FC90580895BC
:101CB00046F00C94130D60E070E080E89FE3089517
:101CC0004FE79F775F934F933F932F930E946B0D46
:101CD0002F913F914F915F910E94B30D0C947D0E17
:101CE0000E94E90C880B990B089529F416F00C94C6
:101CF0000D0D0C94570D0C94130D0E943D0DA8F37F
:101D00009638A0F707F80F92E8942BE33AEA48EBED
:101D10005FE70E94C90D0F920F920F924DB75EB709
:101D20000F920E94260FE2ECF0E00E94BD0E4F9150
:101D30005F91EF91FF91E595EE1FFF1F49F0FE5770
:101D4000E0684427EE0F441FFA95E1F74195550BE3
:101D50000E94F00E0F9007FE0C94E40E08959F3F32
:101D600031F0915020F4879577956795B795880F56
:101D7000911D9695879597F90895DF93CF931F93BB
:101D80000F93FF92EF92DF927B018C01689406C063
:101D9000DA2EEF010E94C60DFE01E894A59125916F
:101DA000359145915591A6F3EF010E94AA0BFE01D2
:101DB0009701A801DA9469F7DF90EF90FF900F91F7
:101DC0001F91CF91DF9108959B01AC0160E070E01D
:101DD00080E89FE30C94040C0C940D0D0C94AF0E52
:101DE0000E943D0DD8F39923C9F3940F511DA3F31D
:101DF0009150504094F059F0882332F0660F771FCD
:101E0000881F91505040C1F79E3F51052CF7880F15
:101E1000911D9695879597F908955F3FACF0983E90
:101E20009CF0BB27869577956795B79508F4B160C8
:101E30009395C1F7BB0F58F711F460FFE8CF6F5FC0
:101E40007F4F8F4F9F4FE3CF0C94580DFA01DC0169
:101E5000AA0FBB1F9B01AC01BF5728F422273327D1
:101E60004427507820C0B75190F4AB2F00244695FA
:101E700037952795011CA395D2F3002071F0220F0E
:101E8000331F441FB395DAF30ED00C94920B6130DC
:101E90007105A0E88A07B94630F49B01AC016627BA
:101EA000772788279078309621F0208331834283EA
:101EB00053830895AA1BBB1B51E107C0AA1FBB1F78
:101EC000A617B70710F0A61BB70B881F991F5A95C6
:101ED000A9F780959095BC01CD010895A1E21A2E35
:101EE000AA1BBB1BFD010DC0AA1FBB1FEE1FFF1FBE
:101EF000A217B307E407F50720F0A21BB30BE40B0E
:101F0000F50B661F771F881F991F1A9469F7609554
:101F10007095809590959B01AC01BD01CF0108950E
:101F2000EE0FFF1F0590F491E02D0994FB01DC01F9
:101F30008D91019080190110D9F3990B0895F894AF
:021F4000FFCFD1
:101F42003D023D02000000009601F6002301E3017C
:101F52005401320146012F2F22225C5C6208660C7A
:101F62006E0A720D7409000D0A006E756C6C0074B5
:101F72007275650066616C7365006E616E00696EF4
:101F820066006F7666003A20496E696369616E6425
:101F92006F204C6569747572612E2E2E00202020F0
:101FA20046696E616C697A61646F2E00436F6E746C
:101FB20061646F7220646520766F6C7461733A207D
:101FC200003B202052504D3A20003B202056656CA9
:101FD2002E2056656E746F3A2000205B6B6D2F6861
:101FE2005D200054656D70657261747572613A208E
:101FF200002043004578706F736963616F20555606
:102002003A20006578706F736963616F55560054AA
:10201200656D7047726175730056656E746F6B6D96
:02202200680054
:00000001FF
